:100000000C94FF000C9427010C9427010C942701F9
:100010000C9427010C9427010C9427010C942701C0
:100020000C9427010C9427010C9427010C94490A85
:100030000C9427010C9427010C9427010C942701A0
:100040000C94A7090C9427010C94170A0C94F1093D
:100050000C9427010C9427010C9427010C94270180
:100060000C9427010C94270105A84CCDB2D44EB9AD
:100070003836A9020C50B9918688083CA6AAAA2A4B
:10008000BE000000803F0000000023002600290081
:100090000000000800020100000304070000000047
:1000A0000000000000C3000080610000C0300000BC
:1000B0008061000000C3000000860100000C030006
:1000C000008601000000000000000000300C00006D
:1000D000100A010018496200100A01000000000027
:1000E0000000000000000000000000000000000010
:1000F0000000000021000021520884128C144A0CD8
:100100000023310000C000000000000000000000DB
:1001100000000000000000000000000000104A0C79
:100120000008250620841003304208011829040025
:100130008C1402004602810003814020814020305F
:10014000402090188C24490C0E4130041E42480C6B
:100150008C44480C82E049129CC0411E8CC421048E
:100160001042081E8CC4480C8EE0480C0023850009
:100170000023FD0000E0FD008C14B6128C144A0C24
:1001800000C300008091243F80D4B63F0020B53FDB
:1001900000F00300805821000281402040283100F7
:1001A000C02F3100C0EC310000420901A1C4482138
:1001B0000441480C10C2210480D4860040187A0003
:1001C00000000000240027002A0000000000250095
:1001D00028002B00040404040404040402020202A4
:1001E00002020303030303030102040810204080FA
:1001F000010204081020010204081020CE0D112471
:100200001FBECFEFD8E0DEBFCDBF12E0A0E0B1E06F
:10021000EAEAFCE302C005900D92A631B107D9F7D6
:1002200024E0A6E1B2E001C01D92A436B207E1F7D6
:1002300010E0CFEFD0E004C02197FE010E94441EE1
:10024000CE3FD107C9F70E94340E0C94531E0C9474
:100250000000DC01E5E2F2E09D91992329F0819113
:100260009817D1F380E0089581E0089590E0FC01B3
:10027000E057FF4F2491FC01E851FE4F3491FC01FF
:10028000EC52FE4FE491EE23C9F0222339F02330E3
:1002900001F1A8F4213019F1223029F1F0E0EE0F3C
:1002A000FF1FE653FE4FA591B4918FB7F894EC91E0
:1002B000611126C030953E233C938FBF08952730AF
:1002C000A9F02830C9F0243049F7809180008F7D53
:1002D00003C0809180008F7780938000DFCF84B54A
:1002E0008F7784BDDBCF84B58F7DFBCF8091B0004D
:1002F0008F778093B000D2CF8091B0008F7DF9CFFF
:100300003E2BDACFCF93DF9390E0FC01E851FE4F14
:1003100024918C529E4FFC0184918823D1F090E06F
:10032000880F991FFC01E054FE4FA591B491FC0188
:10033000E653FE4FC591D49161110EC09FB7F8945A
:100340008C91E22FE0958E238C932881E223E88321
:100350009FBFDF91CF9108958FB7F894EC91E22B76
:10036000EC938FBFF6CF3FB7F89480911D02909128
:100370001E02A0911F02B091200226B5A89B05C0C5
:100380002F3F19F00196A11DB11D3FBFBA2FA92F14
:10039000982F8827BC01CD01620F711D811D911D11
:1003A00042E0660F771F881F991F4A95D1F708957D
:1003B0008F929F92AF92BF92CF92DF92EF92FF9275
:1003C0006B017C010E94B3014B015C01C114D1049B
:1003D000E104F104B9F00E94B301681979098A09AE
:1003E0009B09683E73408105910580F321E0C21AA4
:1003F000D108E108F10888EE880E83E0981EA11C60
:10040000B11CE4CFFF90EF90DF90CF90BF90AF9002
:100410009F908F9008952FB7F89460911902709172
:100420001A0280911B0290911C022FBF08952F92F7
:100430003F924F925F926F927F928F929F92AF9274
:10044000BF92CF92DF92EF92FF920F931F93CF93C1
:10045000DF9300D000D000D0CDB7DEB769017A01BC
:100460000115110511F401E010E00E94411C9B01EF
:10047000AC01211531054105510511F5C701B60142
:100480000E94D801B801110F880B990B26960FB660
:10049000F894DEBF0FBECDBFDF91CF911F910F91BA
:1004A000FF90EF90DF90CF90BF90AF909F908F9094
:1004B0007F906F905F904F903F902F900C94D80159
:1004C00060E472E48FE090E00E94251B29013A016C
:1004D00080914704909148049927FC01E851FE4F10
:1004E000249129838C529E4FFC012491E22FF0E04D
:1004F000EE0FFF1FE653FE4F259134913E832D836F
:10050000FC018491E82FF0E0EE0FFF1FE054FE4F56
:10051000A591B4918C91F9818F2B8C930E940B0241
:100520004B015C01D301C201B695A79597958795BC
:100530009B838A831C01220C331C220C331C25E074
:10054000221A3108481A590A3201660C771C660CC7
:10055000771C35E0631A7108898180958C830E942D
:100560000B02681979098A099B096C157D058E05AE
:100570009F0508F087CFED81FE818081F9818F2B67
:10058000ED81FE8180832A813B812230310518F084
:10059000C1010197F1F7ED81FE818081FC818F23FC
:1005A000ED81FE818083F2E04F165104C0F2C30159
:1005B0000197F1F7D4CFAF92BF92CF92DF92EF9233
:1005C000FF920F931F93CF93DF936C017B018B01FD
:1005D000040F151FEB015E01AE18BF08C017D1074D
:1005E00059F06991D601ED91FC910190F081E02DD7
:1005F000C6010995892B79F7C501DF91CF911F912C
:100600000F91FF90EF90DF90CF90BF90AF90089543
:10061000FC01538D448D252F30E0842F90E0821B08
:10062000930B541710F0CF96089501970895FC018D
:10063000918D828D981761F0A28DAE0FBF2FB11DE5
:100640005D968C91928D9F5F9F73928F90E008953D
:100650008FEF9FEF0895FC01918D828D981731F0F7
:10066000828DE80FF11D858D90E008958FEF9FEF4B
:100670000895FC01918D228D892F90E0805C9F4F21
:10068000821B91098F739927089585E692E00E9455
:10069000390321E0892B09F420E0822F089580E0BE
:1006A00090E0892B29F00E94450381110C940000F1
:1006B0000895FC01A48DA80FB92FB11DA35ABF4FF7
:1006C0002C91848D90E001968F739927848FA68951
:1006D000B7892C93A089B1898C91837080648C93A5
:1006E000938D848D981306C00288F389E02D808154
:1006F0008F7D80830895EF92FF920F931F93CF9386
:10070000DF93EC0181E0888F9B8D8C8D98131AC04C
:10071000E889F989808185FF15C09FB7F894EE8933
:10072000FF896083E889F989808183708064808390
:100730009FBF81E090E0DF91CF911F910F91FF90DB
:10074000EF900895F62E0B8D10E00F5F1F4F0F7383
:100750001127E02E8C8D8E110CC00FB607FCFACF3E
:10076000E889F989808185FFF5CFCE010E94590380
:10077000F1CFEB8DEC0FFD2FF11DE35AFF4FF0820F
:100780009FB7F8940B8FEA89FB8980818062CFCF75
:10079000CF93DF93EC01888D8823B9F0AA89BB89B8
:1007A000E889F9898C9185FD03C0808186FD0DC0A3
:1007B0000FB607FCF7CF8C9185FFF2CF808185FFC4
:1007C000EDCFCE010E945903E9CFDF91CF9108957B
:1007D000DC01EC918E2F90E0FC01EE0FFF1FE80F83
:1007E000F91FEE5FFC4F808186FF02C08F7B808304
:1007F000089588E293E00E94E80381E593E00E9477
:10080000E8038AE793E00E94E80383EA93E00C940C
:10081000E803CF92DF92EF92FF92CF93DF93EC0148
:10082000603282E07807CCF5653B710514F064EB2B
:1008300070E0898128E830E0281B310987FD339575
:10084000220F331F220F331F6901330FEE08FF08F9
:100850008A8128E532E0281B310987FD3395220F74
:10086000331F220F331F032E000C440B550B2C1982
:100870003D094E095F09DB0177FF02C0B0E0A0E04F
:100880000E941D1B24EB30E040E050E00E94F31A70
:10089000C20ED31EE41EF51EB601E881EC3070F5E1
:1008A000298188E890E0821B910927FD9395880FA4
:1008B000991F880F991F681779077CF02A8188E5AE
:1008C00092E0821B910927FD9395880F991F880F4D
:1008D000991F681779070CF4CB010297880F991FAD
:1008E0004FB7F8942E2F30E0F901EE0FFF1FE20F03
:1008F000F31FEE5FFC4F928381834FBFDF91CF9157
:10090000FF90EF90DF90CF9008951F93CF93DF93E8
:10091000EC019881292F30E0F901EE0FFF1FE20F63
:10092000F31FEE5FFC4F808186FD83C0162F9C3045
:1009300008F04EC061E0812F0E9482018881282F3B
:1009400030E0F901EE0FFF1FE20FF31FEE5FFC4FE7
:100950001F736081607C162B108319821A822CE031
:10096000622F0E94241E829FB001112430E020E0FB
:10097000AB01420F531FFA01EE0FFF1FE40FF51FEB
:10098000EE5FFC4F908196FD16C02F5F3F4F2C30DD
:10099000310571F781110FC01092800082E08093C1
:1009A00081001092850010928400B19A80916F00AE
:1009B000826080936F00E8818E2F90E0FC01EE0F43
:1009C000FF1FE80FF91FEE5FFC4F8081806480837A
:1009D0006AE570E0CE010E9409048EE190E09E8FEE
:1009E0008D8F80ED97E098878F8380E090E0A4E87A
:1009F000B2E4898F9A8FAB8FBC8F8AE198EFA2EC1B
:100A0000BDE38D8B9E8BAF8BB88F1F8E18A219A262
:100A10001AA28DE290E09C838B83198A1A8A1B8A22
:100A20001C8A19861A861B861C861E821D821FA29E
:100A300018A6DF91CF911F91089560912F047091B6
:100A4000300488E293E00E94850460913104709143
:100A5000320481E593E00E94850460913304709133
:100A600034048AE793E00E94850460913504709114
:100A7000360483EA93E00C9485042F923F924F92C0
:100A80005F926F927F928F929F92AF92BF92CF921E
:100A9000DF92EF92FF920F931F93CF93DF9300D0DB
:100AA00000D0CDB7DEB76C017C836B830E941D053F
:100AB000809163048111109263048B819C8108965C
:100AC0001C019AE0C916D10409F4BBC00D2C000C1E
:100AD000EE08FF08C701B6010E94721C20E030E05A
:100AE00040E251E40E94C81B2B013C010B811C8198
:100AF00023E5822E24E0922E3FE3A32E34E0B32E92
:100B0000F801619171918F01F501819191915F01DE
:100B1000681B790B072E000C880B990B0E94721C26
:100B2000A30192010E94C81BF40161937193819308
:100B300091934F010215130519F70E940B02C60E7F
:100B4000D71EE81EF91EC0924B04D0924C04E092CE
:100B50004D04F0924E04CC24C394D12C0E940B027D
:100B600000914B0410914C0420914D0430914E049F
:100B7000601771078207930708F078C00E940B0284
:100B8000665F7F4F8F4F9F4F60934F047093500469
:100B9000809351049093520408E213E083E594E0BB
:100BA0009A8389838FE3E82E84E0F82E26010D2CAA
:100BB000000C66087708F701219031907F01E981E8
:100BC000FA8181909190A190B190FA83E983C30159
:100BD000B2010E94721CA50194010E94271D4B01C5
:100BE0005C01B101330C880B990B0E94721C9B01B4
:100BF000AC01C501B4010E94571B0E943A1CF801C8
:100C000027853089620F731FC8010E940904075DA0
:100C10001F4FF7E4EF16F4E0FF0669F60E940B029F
:100C200000914F04109150042091510430915204CE
:100C3000601771078207930788F38FEFC81AD80AE5
:100C40008DCFEB80FC8008E213E0F7016191719198
:100C50007F01F80187859089680F791FC8010E947C
:100C60000904075D1F4FE214F30479F7EB81FC815F
:100C7000808191819093400480933F04828193818D
:100C8000909342048093410484819581909344041D
:100C90008093430486819781909346048093450412
:100CA0000F900F900F900F90DF91CF911F910F91A8
:100CB000FF90EF90DF90CF90BF90AF909F908F907C
:100CC0007F906F905F904F903F902F900895CF93BB
:100CD000DF93CDB7DEB728970FB6F894DEBF0FBE0F
:100CE000CDBF80916304811115C088E0E0E0F1E0A0
:100CF000DE01119601900D928A95E1F7BE016F5FBA
:100D00007F4F84EF91E00E943D050E94F90381E04E
:100D10008093630428960FB6F894DEBF0FBECDBF54
:100D2000DF91CF910895FC0101900020E9F7319700
:100D3000AF01481B590BBC0185E692E00C94DB0225
:100D4000CF93DF930E949306EC0182E791E00E942B
:100D500093068C0F9D1FDF91CF91089585E292E05D
:100D6000FC012191CF01222321F02032C9F70C94FC
:100D7000BC1A90E080E008954F925F926F927F924C
:100D80008F929F92AF92BF92CF92DF92EF92FF929B
:100D90000F931F93CF93DF936A01270138018B01D3
:100DA0004C0159017B0188E0E80EF11CC7E2D3E059
:100DB000F801819191918F019F838E83F40181913C
:100DC00091914F019D838C83D986C8866E8D7F8DCE
:100DD000C6010E94301E90E080E00E94701C9B01C2
:100DE000AC012A8F3B8F4C8F5D8F6BED7FE089ECE0
:100DF00090E40E94C81B6E8B7F8B888F998FF501C2
:100E000081919191A191B1915F018A879B87AC8774
:100E1000BD87A9960E151F0559F60E940B020E9468
:100E2000701C4B015C01B601DD0C880B990B0E9414
:100E3000721CA30192010E94271DA50194010E942A
:100E4000571B6B017C01A5019401C701B6010E94EB
:100E5000221D87FD92C0C7E2D3E00E940B026CA363
:100E60007DA38EA39FA308A119A12AA13BA14B0199
:100E70005C01801A910AA20AB30A0E8D1F8D30E020
:100E800020E0081519052A053B050CF064C068A38D
:100E900079A38AA39BA388A581114FC02A853B858E
:100EA0004C855D856A897B898C899D890E94571B49
:100EB0000E94941D4B015C016C817D8190E080E07B
:100EC0000E94701CA50194010E94271D4B015C012A
:100ED0006E817F8190E080E00E94701C9B01AC01DC
:100EE000C501B4010E94571B4B015C0120E030E0BA
:100EF000A9010E94221D20E030E040E05FE387FD71
:100F000037C0C501B4010E94571B0E943A1C7F875D
:100F10006E8789A5882329F07195619571097F876E
:100F20006E876E857F85665A7F4F88899989680F9D
:100F3000791FCE0101960E9409042E893F89488DB0
:100F4000598D6A897B898C899D890E94571B6A8B80
:100F50007B8B8C8B9D8BA996F3E0CB3CDF0709F054
:100F60007CCF0E940B020E94701C4B015C016BCF76
:100F7000C501B4010E94561BC8CFDF91CF911F91CC
:100F80000F91FF90EF90DF90CF90BF90AF909F9028
:100F90008F907F906F905F904F9008952F923F9227
:100FA0004F925F926F927F928F929F92AF92BF9279
:100FB000CF92DF92EF92FF920F931F93CF93DF9325
:100FC000CDB7DEB728970FB6F894DEBF0FBECDBF02
:100FD0009A8389837C836B835E834D831901270108
:100FE00038010E941D0580916304811110926304F1
:100FF000C301B2010E943A1C4B016B011616170681
:10100000BCF418861F82E12CF12C00E81FE391014B
:101010004D815E816B817C8189819A810E94BC06B1
:101020008F819885019698878F83C816D90659F7BE
:10103000B401990C880B990B0E94721C9B01AC01A6
:10104000C301B2010E94561B7B018C0191014D81AD
:101050005E816B817C8189819A810E94BC06289681
:101060000FB6F894DEBF0FBECDBFDF91CF911F91B9
:101070000F91FF90EF90DF90CF90BF90AF909F9037
:101080008F907F906F905F904F903F902F9008953A
:101090008F929F92AF92BF92CF92DF92EF92FF9288
:1010A0000F931F93CF93DF93CDB7DEB7A0970FB603
:1010B000F894DEBF0FBECDBF4B015C0188E0E8E0D5
:1010C000F1E0DE01599601900D928A95E1F788E0F2
:1010D000E0E1F1E0DE01519601900D928A95E1F791
:1010E000CE0101966C0188E0F60111928A95E9F72C
:1010F00026EA2403B001259F700D1124072E000C51
:10110000880B990B0E94721C2BED3FE049E450E4E0
:101110000E94271D20E030E044E353E40E94C81BF6
:1011200069877A878B879C876D877E878F87988B67
:1011300085017401960148EE53E0BE016F5E7F4F5A
:10114000CE0149960E94CE07A0960FB6F894DEBF56
:101150000FBECDBFDF91CF911F910F91FF90EF9008
:10116000DF90CF90BF90AF909F908F900895EF92B7
:10117000FF920F931F93CF93DF93CDB7DEB7A09766
:101180000FB6F894DEBF0FBECDBF7B018C0188E0A7
:10119000E8E0F1E0DE01599601900D928A95E1F7C1
:1011A00088E0E0E1F1E0DE01519601900D928A9530
:1011B000E1F780E1E8E1F1E0DE01119601900D92A6
:1011C0008A95E1F78AE090E041305105D9F49C8F8F
:1011D0008B8F9E012F5F3F4F48EE53E0BE016F5E45
:1011E0007F4FCE0149960E94CE07A0960FB6F89485
:1011F000DEBF0FBECDBFDF91CF911F910F91FF904A
:10120000EF9008959A8F898FE4CFEF92FF920F931A
:101210001F93CF93DF93CDB7DEB7A0970FB6F894A7
:10122000DEBF0FBECDBF7B018C0189E190E09A8FBC
:10123000898F9C8F8B8F3E8F2D8F38A32F8F198A8C
:101240001A8A1B8A1C8AC9019595879504969E8BDC
:101250008D8B37FF02C02F5F3F4F35952795319516
:101260002195310924503109388F2F8B19861A8620
:101270001B861C8680E090E0A4EBB2E489839A830D
:10128000AB83BC838D839E83AF83B88782E99AE06A
:10129000A6E8BFEB8D879E87AF87B88B9E012F5F37
:1012A0003F4FBE016F5E7F4FCE0149960E94CE0731
:1012B000A0960FB6F894DEBF0FBECDBFDF91CF91E1
:1012C0001F910F91FF90EF900895EF92FF920F936F
:1012D0001F93CF93DF93CDB7DEB7A0970FB6F894E7
:1012E000DEBF0FBECDBF7B018C01198E1A8E1B8E07
:1012F0001C8E84E190E09E8F8D8F98A38F8F198A2A
:101300001A8A1B8A1C8A8AE090E09E8B8D8B86EF5E
:101310009FEF988F8F8B9E012F5F3F4F80E1F901E8
:1013200011928A95E9F7BE016F5E7F4FCE01499613
:101330000E94CE07A0960FB6F894DEBF0FBECDBFB9
:10134000DF91CF911F910F91FF90EF9008951F9221
:101350000F920FB60F9211242F933F938F939F9369
:10136000AF93BF938091190290911A02A0911B0232
:10137000B0911C023091180223E0230F2D3758F54D
:101380000196A11DB11D209318028093190290931C
:101390001A02A0931B02B0931C0280911D0290912F
:1013A0001E02A0911F02B09120020196A11DB11D45
:1013B00080931D0290931E02A0931F02B0932002FF
:1013C000BF91AF919F918F913F912F910F900FBE41
:1013D0000F901F90189526E8230F0296A11DB11DAE
:1013E000D2CF1F920F920FB60F9211242F933F93DB
:1013F0004F935F936F937F938F939F93AF93BF931D
:10140000EF93FF9385E692E00E945903FF91EF91DD
:10141000BF91AF919F918F917F916F915F914F910C
:101420003F912F910F900FBE0F901F9018951F9214
:101430000F920FB60F9211242F938F939F93EF93D8
:10144000FF93E0917502F09176028081E0917B023A
:10145000F0917C0282FD1BC0908180917E028F5FA3
:101460008F7320917F02821741F0E0917E02F0E0BD
:10147000EB59FD4F958F80937E02FF91EF919F91E5
:101480008F912F910F900FBE0F901F901895808114
:10149000F4CF1F920F920FB60F9211242F933F9308
:1014A0004F935F936F937F938F939F93AF93BF936C
:1014B000CF93DF93EF93FF9380911602C0912603A1
:1014C000D0E087FF24C010928500109284008091A4
:1014D00016028F5F8093160280911602082E000C70
:1014E000990B8C179D0724F4809116028C30C4F15F
:1014F0008091840090918500049680349C4908F482
:101500007AC08091840090918500049676C0809185
:101510001602082E000C990B8C179D07C4F6E0915B
:1015200016028E2FEE0F990BFC01EE0FFF1FE80F36
:10153000F91FEE5FFC4F808186FFC9CFE091160254
:101540008E2FEE0F990BFC01EE0FFF1FE80FF91F16
:10155000EE5FFC4F808160E08F730E943601B7CF51
:101560002091840030918500E09116028E2FEE0FBD
:10157000990BFC01EE0FFF1FE80FF91FEE5FFC4F08
:1015800081819281820F931F9093890080938800BC
:10159000E09116028E2FEE0F990BFC01EE0FFF1F4C
:1015A000E80FF91FEE5FFC4F808186FF11C0E091CC
:1015B00016028E2FEE0F990BFC01EE0FFF1FE80FA6
:1015C000F91FEE5FFC4F808161E08F730E9436014E
:1015D000FF91EF91DF91CF91BF91AF919F918F914B
:1015E0007F916F915F914F913F912F910F900FBE1F
:1015F0000F901F90189580E49CE990938900809348
:1016000088008FEF80931602E3CFCF92DF92EF92A4
:10161000FF920F931F93E82FF92F05C00150110976
:101620002109310961F1908196239417B9F305C01E
:10163000015011092109310911F190819623941368
:10164000F7CFC12CD12CE12CF12C0AC08FEFC81A96
:10165000D80AE80AF80A0C151D052E053F0579F091
:1016600080818623841791F36C2D7D2D8E2D9F2DE7
:101670001F910F91FF90EF90DF90CF90089560E061
:1016800070E080E090E01F910F91FF90EF90DF906D
:10169000CF9008954F925F926F927F928F929F9218
:1016A000AF92BF92CF92DF92EF92FF920F931F9370
:1016B000CF93DF93CDB7DEB728970FB6F894DEBF90
:1016C0000FBECDBF2B013C0129833A834B835C8342
:1016D000ED82FE820F8318870E943A1C8B012981BC
:1016E0003A814B815C81C301B2010E94C31B87FF19
:1016F00025C0B801110F880B990B0E94721C2B0199
:101700003C01AC019B0169817A818B819C810E94A3
:10171000221D1816C4F58401A6019501C301B2016A
:101720000E9417022D813E814F815885C301B2016D
:101730000E94271D0E943A1C8B01DBCFB801110FBC
:10174000880B990B0E94721C2B013C01AC019B0180
:1017500069817A818B819C810E94C31B87FF13C0A2
:101760008401A6019501C301B2010E9417022D81D7
:101770003E814F815885C301B2010E94C81B0E945F
:101780003A1C8B01DBCF28960FB6F894DEBF0FBE54
:10179000CDBFDF91CF911F910F91FF90EF90DF9020
:1017A000CF90BF90AF909F908F907F906F905F9001
:1017B0004F900895EF92FF920F931F93CF93DF9373
:1017C000CDB7DEB7A0970FB6F894DEBF0FBECDBF82
:1017D0007B018C01198E1A8E1B8E1C8E84E190E089
:1017E0009E8F8D8F98A38F8F198A1A8A1B8A1C8AC5
:1017F0009E8B8D8B8CEE9FEF988F8F8B9E012F5F32
:101800003F4F80E1F90111928A95E9F7BE016F5EC1
:101810007F4FCE0149960E94CE07A0960FB6F8944E
:10182000DEBF0FBECDBFDF91CF911F910F91FF9013
:10183000EF9008950F931F93CF93DF93082F162FE8
:10184000D42FC8E06D2F661F6627661F802F0E9469
:101850003601DD0F61E0812F0E94360160E0812FAB
:101860000E943601C15071F7DF91CF911F910F9106
:101870000895FF920F931F93CF93DF93F82EC82FF5
:10188000D0E0C053DC4F2C8181E090E0A0E0B0E0DC
:1018900004C0880F991FAA1FBB1F6A95D2F7442363
:1018A00029F1822B8C8360E08091D1030E94360164
:1018B00010E000E0F39424968091D3038017110682
:1018C000E9F0E4F06091D2038091D0030115110595
:1018D00081F44F2D0E941A0C48816091D2038091AF
:1018E000D0030E941A0C0F5F1F4FE6CF8095822312
:1018F000D9CF40E00E941A0C40E0EFCF60E0809129
:10190000D1030E94360161E08091D103DF91CF9134
:101910001F910F91FF900C943601AF92BF92CF921E
:10192000DF92EF92FF920F931F93CF93DF936B01A0
:101930007C0180912C0490912D040197F1F4C7E073
:1019400010E000E05801D6E0B701A6010A2C04C05F
:1019500076956795579547950A94D2F741706C2F05
:101960008D2F0E94390C8FEFA81AB80AD15061F759
:101970000A5F1F4FC150C23029F780912C0490910B
:101980002D040297F9F4C0E010E000E05801D1E026
:10199000B701A6010A2C04C076956795579547951F
:1019A0000A94D2F741706C2F8D2F0E94390C8FEF63
:1019B000A81AB80ADF5FD73059F70A5F1F4FCF5F09
:1019C000C53021F780912C0490912D040397F1F4F8
:1019D000C0E010E000E05801D6E0B701A6010A2CF3
:1019E00004C076956795579547950A94D2F741704C
:1019F0006D2F8C2F0E94390C8FEFA81AB80AD15086
:101A000061F70A5F1F4FCF5FC53029F780912C0423
:101A100090912D040497F9F4C7E010E000E058011C
:101A2000D1E0B701A6010A2C04C0769567955795B9
:101A300047950A94D2F741706D2F8C2F0E94390C74
:101A40008FEFA81AB80ADF5FD73059F70A5F1F4F28
:101A5000C150C23021F7DF91CF911F910F91FF90BC
:101A6000EF90DF90CF90BF90AF900895CF92DF922C
:101A7000EF92FF920F931F93CF93DF93C1E0D0E0DB
:101A800060E08091D1030E9436016E0181E0C81AA6
:101A9000D10807E213E0F12CE12C8091D3038E15DD
:101AA0001F04C9F0C4F04C2F6091D2038091D00381
:101AB0000E941A0C40E06091D2038091D0030E94F2
:101AC0001A0CF801E355FF4F10828FEFE81AF80A5D
:101AD0000C0D1D1DE2CF60E08091D1030E94360104
:101AE00061E08091D1030E9436012196C930D10571
:101AF00039F61092D4031092D5031092D6031092A7
:101B0000D7031092D8031092D9031092DA031092DF
:101B1000DB03ECEDF3E0119284E0EC32F807D9F747
:101B2000DF91CF911F910F91FF90EF90DF90CF90B9
:101B30000895660F771F660F771F6C5B7E4F44E03A
:101B400050E081E292E00E94DA1A609121027091E5
:101B5000220280912302909124020C948D0C2AE0A1
:101B6000269FF001279FF00D1124BF01640F751F00
:101B7000660F771F660F771F6C557F4F44E050E06C
:101B800081E292E00E94DA1A6091210270912202B1
:101B900080912302909124020C948D0C1092680283
:101BA0001092670288EE93E0A0E0B0E080936902B3
:101BB00090936A02A0936B02B0936C0284E691E06A
:101BC000909366028093650285EC90E09093720298
:101BD0008093710284EC90E090937402809373027E
:101BE00080EC90E0909376028093750281EC90E017
:101BF000909378028093770282EC90E090937A023F
:101C00008093790286EC90E090937C0280937B0233
:101C100010927E0210927F02109280021092810236
:101C2000E8E2F3E02FEF48EB5BE0809126038C3095
:101C3000C8F491E0980F90932603808390E0DC0134
:101C4000AA0FBB1FA80FB91FAE5FBC4F12965C93C3
:101C50004E931197108A1786B99683E0EC3CF807EB
:101C600021F708952083F6CFCF93DF93CDB7DEB76A
:101C7000ED970FB6F894DEBF0FBECDBF789484B554
:101C8000826084BD84B5816084BD85B5826085BD78
:101C900085B5816085BD80916E00816080936E0006
:101CA00010928100809181008260809381008091F8
:101CB00081008160809381008091800081608093A9
:101CC00080008091B10084608093B1008091B00069
:101CD00081608093B00080917A00846080937A0064
:101CE00080917A00826080937A0080917A0081608E
:101CF00080937A0080917A00806880937A001092B5
:101D0000C100E0917502F091760282E08083E0915B
:101D10007102F09172021082E0917302F0917402EC
:101D200080E1808310927D02E0917902F0917A0245
:101D300086E08083E0917702F09178028081806173
:101D40008083E0917702F0917802808188608083BF
:101D5000E0917702F0917802808180688083E09141
:101D60007702F091780280818F7D808382E090E01D
:101D70009093300480932F0483E090E0909332049A
:101D80008093310484E090E0909334048093330492
:101D900085E090E090933604809335040E941D0501
:101DA0001092630447E2642E43E0742E10E000E0DA
:101DB000C8010E94EB1A90E0813891050CF09A95C9
:101DC000D30151969C938E9350970F5F1F4FB9E2AA
:101DD0006B0E711C0430110559F78AE590E0909361
:101DE000400480933F049093420480934104909375
:101DF000440480934304909346048093450488E010
:101E000090E09093CD038093CC0389E090E0909391
:101E1000CF038093CE0361E088E00E94820160E0FE
:101E20008091CE030E9482018DE090E0909348045F
:101E30008093470484E190E090934A04809349049E
:101E400061E08DE00E94820160E084E10E948201F5
:101E50000E94670664EF71E080E090E00E94D80184
:101E600085E791E00E94A0063AE5232E312CFE0181
:101E70003196FBABEAAB85E692E00E943903892BF1
:101E800011F40C94AC1A85E692E00E941703E091DD
:101E900017028A3021F08D3011F00C949E1AEE2337
:101EA00051F3F0E0EB5DFD4F1082E5E2F2E081914D
:101EB000882349F09FE9980F9A31C8F7DF011197FD
:101EC00080528C93F4CF61EE71E085E292E00E9443
:101ED0004A1E892B29F481E891E00E94A006A6C041
:101EE00069E871E085E292E00E944A1E892B19F4AC
:101EF0000E946706CDC061E971E085E292E00E9430
:101F00004A1E892BA9F366E971E085E292E00E94FE
:101F10004A1E892B09F0A8C060E08091CC030E9482
:101F2000360183E090E00197F1F761E08091CC0306
:101F30000E94360183E290E00197F1F760E0809122
:101F4000CC030E9436018091CE039091CF03992754
:101F5000FC01E851FE4F6491FC01EC52FE4FE4910C
:101F6000F0E0EE0FFF1FEA57FF4F8591949100E4D8
:101F70001CE920E030E0462F0E94050B6115710539
:101F80008105910529F06F5F7F4F8F4F9F4F9F70A5
:101F90002AE330E040E050E00E94F31A21153105B9
:101FA0004105510521F427EE33E040E050E0CA013D
:101FB000B9010E94721C0E943A1C2B018BE991E02E
:101FC0000E949306052C000C6608770877FE31C046
:101FD0006DE285E692E00E947B0322273327A90168
:101FE000241935094609570919A28E010F5D1F4FA3
:101FF0009AE0492E512C612C712CCA01B901A30120
:1020000092010E94251B605DD8016E938D01211500
:1020100031054105510589F70115110519F0C80170
:102020000E94930682E791E00E94930610921702A5
:1020300022CFA301920119A28E010F5D1F4F8AE0EA
:10204000482E512C612C712CCA01B901A3019201B7
:102050000E94251B605DF80162938F0121153105F7
:102060004105510589F7D8CF6FE971E085E292E02B
:102070000E944A1E892B79F410E000E028EC30E041
:1020800040E050E060E070E08CE594E40E941702CC
:102090008EE891E022CF89EC91E00E94290188230B
:1020A000B9F00E94AE068C011816190614F002E071
:1020B00010E085E692E00E94C803B801110F880B7A
:1020C000990B0E94721C41E050E00E94480810CF1A
:1020D00084EA91E00E9429018823A9F00E94AE06BB
:1020E0008C011816190614F002E010E085E692E063
:1020F0000E94C803B801110F880B990B0E94721C33
:102100004FEF5FEFE2CF8DEA91E00E942901882333
:10211000B9F00E94AE068C011816190614F002E000
:1021200010E085E692E00E94C803B801110F880B09
:10213000990B0E94721C41E050E00E94B708D8CE73
:1021400086EB91E00E9429018823A9F00E94AE0647
:102150008C011816190614F002E010E085E692E0F2
:102160000E94C803B801110F880B990B0E94721CC2
:102170004FEF5FEFE2CF80EC91E00E9429018823CE
:1021800009F44BC00E94AE063C01181619061CF05B
:1021900066246394712C85E692E00E94C80388E06F
:1021A000E8E2F1E0DE019A9601900D928A95E1F75E
:1021B00088E0E0E3F1E0DE01929601900D928A95CD
:1021C000E1F788E0E0E0F1E0DE01119601900D9288
:1021D0008A95E1F710E000E0BE01665D7F4F80E97F
:1021E00091E00E943D05BE016E5D7F4F80E991E068
:1021F0000E943D0560E273E080E090E00E94D8011B
:10220000BE016F5F7F4F84EF91E00E943D050F5F3D
:102210001F4F0615170504F36BCE85EC91E00E9465
:102220002901882309F449C00E94AE068C011816C2
:10223000190614F002E010E085E692E00E94C8035F
:102240001AA61BA61CA61DA689E190E09FA78EA733
:1022500099AB88AB1AA21BA21CA21DA28EE090E033
:102260009FA38EA382EF9FEF99A788A788E0AAA9D2
:10227000BBA91D928A95E9F78BED9FE0A9ECBFEB16
:1022800089879A87AB87BC8787E39DE8A7E2B0EC94
:102290008D879E87AF87B88BB801110F880B990B7C
:1022A0000E94721C7B018C019E012F5F3F4F48EE04
:1022B00053E0BE016E5D7F4FD8C08EEC91E00E946E
:1022C00029018823C9F00E94AE068C011816190650
:1022D00014F002E010E085E692E00E94C803B80125
:1022E000110F880B990B0E94721C24E130E048EE1C
:1022F00053E00E940509FCCD87ED91E00E94290181
:102300008823B9F00E94AE068C011816190614F045
:1023100002E010E085E692E00E94C803B801110FC8
:10232000880B990B0E94721C48EE53E00E946509CD
:10233000DFCD8DED91E00E9429018823E9F10E9413
:10234000AE068C011816190614F002E010E085E6BE
:1023500092E00E94C8038CE090E09BA78AA79DA70B
:102360008CA784E190E09FA78EA799AB88AB1AA2B7
:102370001BA21CA21DA28AE090E09FA38EA386EF61
:102380009FEF99A788A719821A821B821C828BED66
:102390009FE0A9E4B0E48D839E83AF83B8878BED83
:1023A0009FE0A9ECBFEB89879A87AB87BC878BED51
:1023B0009FE0A9ECBFE36CCF86EE91E00E9429017B
:1023C0008823B9F00E94AE068C011816190614F085
:1023D00002E010E085E692E00E94C803B801110F08
:1023E000880B990B0E94721C48EE53E00E94DA0B96
:1023F0007FCD8DEE91E00E9429018823D9F10E94C2
:10240000AE068C011816190614F002E010E085E6FD
:1024100092E00E94C8031EA61FA618AA19AA84E16A
:1024200090E09BA78AA79DA78CA73E0192E2690E28
:10243000711C88E0D3011D928A95E9F780E1E8E3F9
:10244000F1E0DE01119601900D928A95E1F7B80155
:10245000110F880B990B0E94721C7B018C019E014D
:102460002F5F3F4F48EE53E0B301CE018A960E94A2
:10247000CE073ECD84EF91E00E942901882361F1CF
:102480000E94AE068C011816190614F002E010E046
:1024900085E692E00E94C8038DE090E09BA78AA7A2
:1024A0009DA78CA79FA78EA799AB88AB1AA21BA24A
:1024B0001CA21DA281E190E09FA38EA387EF9FEF56
:1024C00099A788A780E1E8E4F1E0DE011196019088
:1024D0000D928A95E1F7E0CE8BEF91E00E94290101
:1024E000882329F185E692E00E94C80388E0E8E5A8
:1024F000F1E0DE01929601900D928A95E1F7BE011E
:102500006E5D7F4F84EF91E00E943D0588E0E0E042
:10251000F1E0DE01119601900D928A95E1F7BE017E
:102520006F5F7F4F84EF91E00E943D05E1CC80E03A
:1025300092E00E942901882311F40C94961A0E94BB
:10254000AE068C0185E692E00E94C8030D301105AD
:1025500008F0CECCF801E155FD4E0C94441EBC129F
:102560002713A8133014FB14BC151E168D1638172C
:102570008C1728183619F9190EE110E022E330E023
:1025800040E050E064EA70ED84E294E40E941702B7
:102590006AE070E080E090E00E94990D68E0862E8D
:1025A000912C7FE0A72EB12CC12CD12C16E6E12E68
:1025B000FE2C06E81FE320E030E04AEF54E460E040
:1025C00070E88BEB94E40E944A0B64E670E080E0D4
:1025D00090E00E94D801FAE0AF2EB12CC12CD12C92
:1025E00020E030E44CE155E460E070E88DEE94E4E6
:1025F0000E944A0B40E253E060E070E080E89FE315
:102600000E946509AFE0AA2EB12CC12CD12C20E08C
:1026100030E04AEF54E460E070E88BEB94E40E9411
:102620004A0B64E670E080E090E00E94D801BAE0D6
:10263000AB2EB12CC12CD12C20E030E44CE155E480
:1026400060E070E88DEE94E40E944A0B78C06BE085
:1026500070E080E090E00E94990D18E0812E912CAE
:1026600004E1A02EB12CC12CD12C16E6E12EFE2CBB
:1026700006E81FE320E030E44CE155E460E070E858
:102680008BEB94E40E944A0B99E1A92EB12CC12C4A
:10269000D12C20E030E84BEB54E460E070E38CE1B7
:1026A00095E40E944A0B6CE070E080E090E00E94AC
:1026B000990D44EF51E060E070E080E89FE30E94F4
:1026C000DA0B6BE070E080E090E00E94990D23E06F
:1026D000822E912C38E0A32EB12CC12CD12C20E0DD
:1026E00030E84BEB55E460E070E08AEF94E40E9440
:1026F0004A0B62E370E080E090E00E94D80142E083
:10270000842E912C5DE0A52EB12CC12CD12C20E083
:1027100030E04AEF54E460E078E78BEB95E40E9408
:102720004A0B6CE070E080E090E00E94990D44EF6D
:1027300051E060E070E080E89FE30E94DA0B0E94C5
:1027400067066BE070E080E090E00E94990DD0CBCE
:1027500066E170E080E090E00E94990D8EE690E0E6
:102760009A838983E6E4F0E0FC83EB8384E190E0E4
:102770009E838D8380EA90E098878F83BE016F5F90
:102780007F4F8CEB92E00E943D05F8EC8F2E912C50
:10279000A4E1AA2EB12CC12CD12C1CE5E12E1FE8FE
:1027A000F12E02E81FE320E030E84FE454E460E05B
:1027B00070E08CE594E40E944A0B68E170E080E0F0
:1027C00090E00E94990D20E030E845E454E460E098
:1027D00070E88FE494E40E944A0B67E170E080E0C7
:1027E00090E00E94990D20E030E049E354E460E07D
:1027F00070E885E494E40E944A0B68E170E080E0B0
:1028000090E00E94990D20E030E04FE254E460E057
:1028100070E089E394E40E944A0B67E170E080E095
:1028200090E00E94990D20E030E447E254E460E03B
:1028300070E08FE294E40E944A0B66E170E080E071
:1028400090E00E94990D64EF71E080E090E00E94BA
:10285000D8010E9467066CE271E080E090E089C1D7
:1028600084E690E09A83898380E590E09C838B8363
:102870008CE390E09E838D8388E790E098878F8338
:10288000BE016F5F7F4F8CEB92E00E943D05E4E05C
:102890006E2E712C50E040E061E070E080E090E04E
:1028A0000E94AF0D4AE0842E912C5AE0A52EB12C47
:1028B000C12CD12C18EBE12E1EE1F12E05E81FE30F
:1028C00020E030E048E453E460E070E088EC92E41B
:1028D0000E944A0B41E050E061E070E080E090E04F
:1028E0000E94AF0D20E030E046E953E460E070E084
:1028F00088E493E40E944A0B42E050E061E070E01B
:1029000080E090E00E94AF0D20E030E04AEF53E419
:1029100060E070E086E993E40E944A0B64EF71E0A6
:1029200080E090E00E94D80141E050E061E070E07A
:1029300080E090E00E94AF0D88248394912C20E0E9
:1029400030E04AE753E460E070E088EC93E40E94F2
:102950004A0B50E040E061E070E080E090E00E94CF
:10296000AF0D20E030E048EC52E460E070E08AE730
:1029700093E40E944A0B64EF71E080E090E00E94D3
:10298000D801F1E06F1A710809F084CF63E170E0BB
:1029900080E090E00E94990D14E0812E912C00E1DE
:1029A000A02EB12CC12CD12C1AE0E12E17EDF12E66
:1029B00003E81FE320E030E041E654E460E070E02B
:1029C0008FE294E40E944A0B97E0892E912C22E139
:1029D000A22EB12CC12CD12C1EEAE12E17E4F12E2F
:1029E00001E81FE320E030E842E254E460E070ECEC
:1029F00080E694E429CE3A8229823C822B8221E926
:102A000030E03E832D836AE7462E512C58864F8254
:102A1000BE016F5F7F4F84EF91E00E943D056CE245
:102A200071E080E090E00E94D80163E170E080E016
:102A300090E00E94990D7FE0872E912CE2E0AE2E6F
:102A4000B12CC12CD12C1CE5E12E1FE8F12E02E89F
:102A50001FE320E030E84BE355E460E070E088ECF1
:102A600094E40E944A0B60E170E080E090E00E94F4
:102A7000990D6AEF70E080E090E00E94D8013A8200
:102A800029823C822B82A0E56A2E712C7E826D8287
:102A900058864F82BE016F5F7F4F84EF91E00E94A6
:102AA0003D056CE271E080E090E00E94D80163E1B6
:102AB00070E080E090E00E94990DB4E18B2E912CA3
:102AC00020E030E84BEB55E460E070E08AEF94E4FE
:102AD0000E944A0B60E170E080E090E00E94990D56
:102AE0006AEF70E080E090E00E94D8013A8229828B
:102AF0003C822B8281E990E09E838D8378866F8271
:102B0000BE016F5F7F4F84EF91E00E943D056CE254
:102B100071E080E090E00E94D80163E170E080E025
:102B200090E00E94990D20E030E04AE755E460E033
:102B300070E088EC94E40E944A0B20E030E84BE31C
:102B400055E460E070E08AE795E40E944A0B60E19A
:102B500070E080E090E00E94990D6CE271E080E00E
:102B600090E00E94D8010E94670664EF71E080E067
:102B700090E00E94D801E5CD8EE690E09A838983AB
:102B8000A6E4B0E0BC83AB833E822D8238862F82E0
:102B9000BE016F5F7F4F8CE291E00E943D0564E1D2
:102BA00070E080E090E00E94990DB2E08B2E912CB5
:102BB00018E0A12EB12CC12CD12C1AE0E12E17ED7A
:102BC000F12E03E81FE320E030E844ED54E460E038
:102BD00070E08AE794E40E944A0B93E0892E912CDE
:102BE00018EBE12E1EE1F12E05E81FE320E030E0B6
:102BF0004AEF53E460E070E684ED94E40E944A0BEF
:102C00003AE0832E912C49E0A42EB12CC12CD12C7A
:102C100016E6E12EFE2C06E81FE320E030E844ED46
:102C200054E460E070E08AE794E40E944A0B64EFA9
:102C300071E080E090E00E94D80181CD6DE070E00D
:102C400080E090E00E94990D94E0892E912C20E183
:102C5000A22EB12CC12CD12C1AE0E12E17EDF12EB1
:102C600003E81FE320E030E041E654E460E070E078
:102C70008FE294E40E944A0B47E0842E912C52E1AB
:102C8000A52EB12CC12CD12C1EEAE12E17E4F12E79
:102C900001E81FE320E030E842E254E460E070EC39
:102CA00080E694E40E944A0B2FE030E04CED55E0C2
:102CB00060E070E080E090E40E9405090E946706F1
:102CC00078E0872E912CEFE0AE2EB12CC12CD12CC8
:102CD00016E6E12EFE2C06E81FE320E030E04AEF86
:102CE00054E460E070E88BEB94E40E944A0B64E6E5
:102CF00070E080E090E00E94D801AAE0AA2EB12CFA
:102D0000C12CD12C20E030E44CE155E460E070E8C7
:102D10008DEE94E40E944A0B14CD3A8229823C82C3
:102D20002B82E6E4F0E0FE83ED835EE6652E712CF7
:102D300078866F82BE016F5F7F4F8CE291E00E94C8
:102D40003D056EE170E080E090E00E94990D0EE19B
:102D500010E024E630E040E050E060E070E08CE518
:102D600094E40E94170264E0862E912C77E0A72E4F
:102D7000B12CC12CD12C1CE5E12E1FE8F12E02E86C
:102D80001FE32FE135ED42E954E460E070E08CE5AB
:102D900094E40E944A0B88248394912CAAE0AA2EE2
:102DA000B12CC12CD12C2CE53FEF43EC54E46FE166
:102DB00075ED82E994E40E944A0B20E030E04CE596
:102DC00054E46CE57FEF83EC94E40E944A0B6FE0DF
:102DD00070E080E090E00E94D801B4E08B2E912C4E
:102DE00084E1A82EB12CC12CD12C24EA30ED44E290
:102DF00054E460E070E08CE594E40E944A0B60E9E2
:102E000071E080E090E00E94D8017A8269827C8241
:102E10006B823E822D8238862F82BE016F5F7F4F8C
:102E200088EC90E00E943D052FE135ED42E954E445
:102E300060E070E08CE594E40E944A0B26E430E008
:102E40003A8329833C832B833E822D8238862F82CE
:102E5000BE016F5F7F4F88EC90E00E943D0524EA41
:102E600030ED44E254E460E070E08CE594E4ECCBB7
:102E70006EE170E080E090E00E94990D94E0892E70
:102E8000912C24E1A22EB12CC12CD12C1CE5E12ED9
:102E90001FE8F12E02E81FE32FE135ED42E954E48B
:102EA00060E070E08CE594E40E944A0B24EA30ED87
:102EB00044E254E460E070E08CE594E40E944A0B44
:102EC0006CE271E080E090E00E94D80163E170E084
:102ED00080E090E00E94990D04E010E04EE6642E40
:102EE000712C3A8229823C822B823E822D82788606
:102EF0006F82BE016F5F7F4F84E690E00E943D05C8
:102F00000E9467060150110961F76EE170E080E0F0
:102F100090E00E94990D8BCE84E090E09DAB8CAB4D
:102F200000E911E019AE18AE48AD59AD62E070E0AD
:102F300080E090E00E94AF0DD801AC59BF4FBDAF0B
:102F4000ACAFB801110F880B990B0E94721C2B01BA
:102F50003C01ECADFDADBF01FF0F880B990B0E944A
:102F6000721C9B01AC011AE0812E912C0AE0A02E6C
:102F7000B12CC12CD12C18EBE12E1EE1F12E05E86D
:102F80001FE3C301B2010E944A0B28AD39AD2F5F88
:102F90003F4F39AF28AF0CAD1DAD2630310521F6BE
:102FA0000E94360D18EBE12E1EE1F12E05E81FE31D
:102FB00020E030E849E854E4C301B2010E944A0B22
:102FC000B8EE4B2EB3E05B2E712C612CA30162E0B6
:102FD00070E080E090E00E94AF0DB2016C597F4F2D
:102FE000072E000C880B990B0E94721C68AF79AFFA
:102FF0008AAF9BAFB201052C000C880B990B0E9485
:10300000721C5AE0852E912CEAE0AE2EB12CC12C18
:10301000D12C18EBE12E1EE1F12E05E81FE328ADBF
:1030200039AD4AAD5BAD0E944A0B34E6431A5108F4
:103030008FEF681A780A96E06916710439F6ACA920
:10304000BDA91197BDABACABAB2B09F069CF03CCDD
:10305000E2E0F0E0F9AFE8AF44EF442E552453949A
:10306000712C612CA30163E070E080E090E00E948D
:10307000AF0DB2016C597F4F072E000C880B990BD6
:103080000E94721C6CAB7DAB8EAB9FABB201052C6A
:10309000000C880B990B0E94721C0AE0802E912C68
:1030A0002AE0A22EB12CC12CD12C1CE5E12E1FE868
:1030B000F12E02E81FE32CA93DA94EA95FA90E94A9
:1030C0004A0B35E6430E511C8FEF681A780A9AE0D6
:1030D0006916710439F616EE412E15E0512E712C49
:1030E000612CA30163E070E080E090E00E94AF0DEE
:1030F000B2016C597F4F072E000C880B990B0E9470
:10310000721C6CAB7DAB8EAB9FABB201052C000C7F
:10311000880B990B0E94721CFAE08F2E912CAAE06A
:10312000AA2EB12CC12CD12C1CE5E12E1FE8F12ECA
:1031300002E81FE32CA93DA94EA95FA90E944A0BF2
:10314000A5E64A0E511CBFEF6B1A7B0AE8ED4E163E
:10315000E9E05E0631F6712C612CA30163E070E0BA
:1031600080E090E00E94AF0DB20164567109072E15
:10317000000C880B990B0E94721C6CAB7DAB8EAB64
:103180009FABB201052C000C880B990B0E94721C9E
:103190004AE0842E912C5AE0A52EB12CC12CD12CC2
:1031A0001CE5E12E1FE8F12E02E81FE32CA93DA942
:1031B0004EA95FA90E944A0BF5E64F1A51082FEF5E
:1031C000621A720A3AE06316710439F636EE632E1B
:1031D00035E0732E512C412CA20163E070E080E0B9
:1031E00090E00E94AF0DB30164567109072E000CE8
:1031F000880B990B0E94721C6CAB7DAB8EAB9FABA6
:10320000B301072C000C880B990B0E94721CBAE0CA
:103210008B2E912C1AE0A12EB12CC12CD12C1CE5A7
:10322000E12E1FE8F12E02E81FE32CA93DA94EA9CB
:103230005FA90E944A0B85E6681A71089FEF491A38
:10324000590AA4EF6A16A1E07A0631F6E8ADF9ADA5
:10325000319739F40E94360D64E670E080E090E02A
:1032600088CC21E030E039AF28AFF6CE6FE070E0D7
:1032700080E090E00E94990DE0E44E2EE6E05E2EA4
:10328000FAE56F2E712CA4EBEA2EF12C3A822982FA
:103290003C822B827E826D82C701861997099887AE
:1032A0008F83BE016F5F7F4F8AE090E00E943D05F3
:1032B000B201052C000C880B990B0E94721C01E0D6
:1032C00010E02FE030E040E050E00E941702FFEFF6
:1032D0006F1A7F0A24E1420E511C36E9631671040D
:1032E000A9F66EE070E080E090E00E94990D60EF3A
:1032F000462E6AE0562E74EBE72EF12C3A82298294
:103300003C822B827E826D82C7018619970998873D
:103310008F83BE016F5F7F4F8AE090E00E943D0582
:10332000B201052C000C880B990B0E94721C01E065
:1033300010E02FE030E040E050E00E94170281E012
:10334000681A710894E1490E511CAAE56A167104C5
:10335000A9F66BE070E080E090E00E94990D44EFE8
:1033600051E060E070E080E89FE30E94DA0B93E0B8
:10337000892E912C28E0A22EB12CC12CD12C16E63E
:10338000E12EFE2C06E81FE320E030E84BEB55E48D
:1033900060E070E08AEF94E40E944A0B62E370E020
:1033A00080E090E00E94D80142E0842E912C5DE004
:1033B000A52EB12CC12CD12C20E030E04AEF54E4F2
:1033C00060E078E78BEB95E40E944A0B6CE070E0DC
:1033D00080E090E00E94990D44EF51E060E070E0E1
:1033E00080E89FE30E94DA0B0E9467060E94360D78
:1033F000A8C967E170E080E090E00E94990D3A82F0
:1034000029823C822B82E6E4F0E0FE83ED8383E2B6
:10341000682E712C78866F82BE016F5F7F4F8CE2C1
:1034200091E00E943D0501E010E028EC30E040E032
:1034300050E060E070E081E694E40E94170268E1E9
:1034400070E080E090E00E94990D3A8229823C82EF
:103450002B8287E390E09E838D8378866F82BE0106
:103460006F5F7F4F8CE291E00E943D0528EC30E0D9
:1034700040E050E060E070E086E194E40E941702D2
:1034800064E170E080E090E00E94990D3A82298228
:103490003C822B828AE290E09E838D8378866F82C5
:1034A000BE016F5F7F4F8CE291E00E943D0528ECEA
:1034B00030E040E050E060E070E086E993E40E9494
:1034C00017023A8229823C822B8282E290E09E831C
:1034D0008D8378866F82BE016F5F7F4F8CE291E0B3
:1034E0000E943D056AE170E080E090E00E94990D45
:1034F0000E94F90328E938E040E050E060E070E025
:1035000086E193E40E94170268E572E080E090E0B3
:103510000E94D8010E94360D6BE070E080E090E0E0
:103520000E94990D0E9467060C94780F88E092E043
:103530000E94930685E292E00C946D0FEF3310F039
:103540000C943B0F91E09E0F90931702F0E0EB5D1F
:10355000FD4F80830C943B0F80E090E0892B11F4A9
:103560000C94340F0E944503882311F40C94340FFB
:103570000E9400000C94340FFC0188279927E894DE
:1035800021912032E9F3293010F02E30C8F32B328C
:1035900041F02D3239F4689404C00E94E31A820F7E
:1035A000911D219120532A30C0F31EF490958195EE
:1035B0009F4F0895FB01DC0102C005900D92415020
:1035C0005040D8F708957AE0979F902D879F802DDF
:1035D000910D11240895F999FECF92BD81BDF89AFD
:1035E000992780B50895052E97FB1EF400940E943C
:1035F0000A1B57FD07D00E94251B07FC03D04EF481
:103600000C940A1B50954095309521953F4F4F4F94
:103610005F4F089590958095709561957F4F8F4F7E
:103620009F4F08950E94471BA59F900DB49F900D3A
:10363000A49F800D911D11240895B7FF0C94121BB7
:103640000E94121B821B930B0895A1E21A2EAA1B43
:10365000BB1BFD010DC0AA1FBB1FEE1FFF1FA21742
:10366000B307E407F50720F0A21BB30BE40BF50B3F
:10367000661F771F881F991F1A9469F760957095C8
:10368000809590959B01AC01BD01CF010895A29F4B
:10369000B001B39FC001A39F700D811D1124911D26
:1036A000B29F700D811D1124911D08955058BB27A4
:1036B000AA270E946E1B0C94E81C0E94DA1C38F0AA
:1036C0000E94E11C20F039F49F3F19F426F40C9479
:1036D000D71C0EF4E095E7FB0C94D11CE92F0E9457
:1036E000F91C58F3BA17620773078407950720F08F
:1036F00079F4A6F50C941B1D0EF4E0950B2EBA2F51
:10370000A02D0B01B90190010C01CA01A0011124E7
:10371000FF27591B99F0593F50F4503E68F11A1693
:10372000F040A22F232F342F4427585FF3CF469524
:1037300037952795A795F0405395C9F77EF41F1646
:10374000BA0B620B730B840BBAF09150A1F0FF0F10
:10375000BB1F661F771F881FC2F70EC0BA0F621FFC
:10376000731F841F48F4879577956795B795F795EC
:103770009E3F08F0B0CF9395880F08F09927EE0F81
:103780009795879508950E94AD1C08F481E00895EF
:103790000E94DC1B0C94E81C0E94E11C58F00E9463
:1037A000DA1C40F029F45F3F29F00C94D11C511130
:1037B0000C941C1D0C94D71C0E94F91C68F39923CF
:1037C000B1F3552391F3951B550BBB27AA2762171D
:1037D0007307840738F09F5F5F4F220F331F441F2A
:1037E000AA1FA9F335D00E2E3AF0E0E832D091505E
:1037F0005040E695001CCAF72BD0FE2F29D0660F4B
:10380000771F881FBB1F261737074807AB07B0E88D
:1038100009F0BB0B802DBF01FF2793585F4F3AF093
:103820009E3F510578F00C94D11C0C941C1D5F3FF9
:10383000E4F3983ED4F3869577956795B795F79519
:103840009F5FC9F7880F911D9695879597F9089501
:10385000E1E0660F771F881FBB1F6217730784079D
:10386000BA0720F0621B730B840BBA0BEE1F88F7AC
:10387000E09508950E94411C6894B1110C941C1DA0
:1038800008950E94011D88F09F5798F0B92F99273D
:10389000B751B0F0E1F0660F771F881F991F1AF03B
:1038A000BA95C9F714C0B13091F00E941B1DB1E068
:1038B00008950C941B1D672F782F8827B85F39F067
:1038C000B93FCCF3869577956795B395D9F73EF4D4
:1038D00090958095709561957F4F8F4F9F4F08957C
:1038E000E89409C097FB3EF490958095709561959A
:1038F0007F4F8F4F9F4F9923A9F0F92F96E9BB2750
:103900009395F695879577956795B795F111F8CFCB
:10391000FAF4BB0F11F460FF1BC06F5F7F4F8F4F36
:103920009F4F16C0882311F096E911C0772321F02C
:103930009EE8872F762F05C0662371F096E8862FC4
:1039400070E060E02AF09A95660F771F881FDAF71B
:10395000880F9695879597F90895990F0008550F48
:10396000AA0BE0E8FEEF16161706E807F907C0F005
:1039700012161306E407F50798F0621B730B840B0D
:10398000950B39F40A2661F0232B242B252B21F4E7
:1039900008950A2609F4A140A6958FEF811D811D87
:1039A000089597F99F6780E870E060E008959FEFC1
:1039B00080EC089500240A941616170618060906C6
:1039C000089500240A941216130614060506089595
:1039D000092E0394000C11F4882352F0BB0F40F41D
:1039E000BF2B11F460FF04C06F5F7F4F8F4F9F4F5D
:1039F000089557FD9058440F551F59F05F3F71F0DF
:103A00004795880F97FB991F61F09F3F79F0879545
:103A10000895121613061406551FF2CF4695F1DFCE
:103A200008C0161617061806991FF1CF869571055E
:103A3000610508940895E894BB2766277727CB0192
:103A400097F908950E94AD1C08F48FEF08950E9425
:103A50003A1D0C94E81C0E94DA1C38F00E94E11C0C
:103A600020F0952311F00C94D11C0C94D71C112438
:103A70000C941C1D0E94F91C70F3959FC1F3950FC7
:103A800050E0551F629FF001729FBB27F00DB11DE2
:103A9000639FAA27F00DB11DAA1F649F6627B00D72
:103AA000A11D661F829F2227B00DA11D621F739F5B
:103AB000B00DA11D621F839FA00D611D221F749F69
:103AC0003327A00D611D231F849F600D211D822FB0
:103AD000762F6A2F11249F5750409AF0F1F08823D7
:103AE0004AF0EE0FFF1FBB1F661F771F881F915004
:103AF0005040A9F79E3F510580F00C94D11C0C94C6
:103B00001C1D5F3FE4F3983ED4F386957795679547
:103B1000B795F795E7959F5FC1F7FE2B880F911D2D
:103B20009695879597F908959F930E949E1D0F90F3
:103B300007FCEE5F0C94C71D0C94D71C0E94011D5E
:103B4000D8F3E894E0E0BB279F57F0F02AED3FE080
:103B500049EC06C0EE0FBB0F661F771F881F28F0C9
:103B6000B23A62077307840728F0B25A620B730BEC
:103B7000840BE3959A9572F7803830F49A95BB0FD1
:103B8000661F771F881FD2F790480C94DD1DEF93B6
:103B9000E0FF07C0A2EA2AED3FE049EC5FEB0E949C
:103BA0006E1B0E94E81C0F90039401FC9058E8E6FD
:103BB000F0E00C94E91D9F3F31F0915020F487957F
:103BC00077956795B795880F911D9695879597F985
:103BD00008959F938F937F936F93FF93EF939B0130
:103BE000AC010E94271DEF91FF910E94FD1D2F91B6
:103BF0003F914F915F910C94271DDF93CF931F93BB
:103C00000F93FF92EF92DF927B018C01689406C0C4
:103C1000DA2EEF010E943A1DFE01E894A59125914C
:103C2000359145915591A6F3EF010E946E1BFE015F
:103C30009701A801DA9469F7DF90EF90FF900F9158
:103C40001F91CF91DF910895991B79E004C0991FCE
:103C5000961708F0961B881F7A95C9F780950895E6
:103C6000AA1BBB1B51E107C0AA1FBB1FA617B707A2
:103C700010F0A61BB70B881F991F5A95A9F78095BE
:103C80009095BC01CD010895EE0FFF1F0590F491B2
:103C9000E02D0994FB01DC018D9101908019011048
:0A3CA000D9F3990B0895F894FFCFB3
:103CAA005A005A005A005A001E001E00140014003E
:103CBA00000000000400FCFF0000000000000000FB
:103CCA00DB0FC9BFDB0FC9BF5A005A003E002300F1
:103CDA005A005A003E006900DB0FC9BFDB0FC93F1B
:103CEA000000000000000000DB0FC9BFDB0FC93F66
:103CFA00DB0FC9BFDB0FC93F5A005A0096001E00EE
:103D0A00000000007B03DB020803C8033903170322
:103D1A002B030D0A004F54544F3920524541445940
:103D2A00004F4B20504F4E4700484F4D45004F4BD8
:103D3A000053544F500044495354004F4B20004203
:103D4A004545500057414C4B4241434B0054555254
:103D5A004E4C454654005455524E52494748540019
:103D6A0042454E44004D4F4F4E57414C4B00435233
:103D7A0055534149544F005357494E4700464C4109
:103D8A005050494E4700544950544F45004A4954EF
:103D9A0054455200415343454E44004A554D500044
:103DAA00474553545552450045525220756E6B6E25
:063DBA006F776E3A200055
:00000001FF
